:0400000080316A28B9
:100008007E14803120007F08F900911C17287B0896
:10001800031D122880317C20803115288031DF2093
:1000280080312000911027009918981C6528971C8A
:1000380065282000A401A5018E1C422882310D22CA
:1000480080313628823148228031FB01FB0A63283F
:100058008231152280310630542882311D228031A8
:10006800053054287B08023A03192628013A031957
:100078002C28073A0319312863286328823139224A
:100088008031582882313E22803104305428823110
:1000980043228031033054288231252280310230B6
:1000A800F8007808FB0063287B08013A03195028F8
:1000B800043A03194628033A03194B2863282700F2
:1000C800991079082000FF007E10090080316C2803
:1000D800FA01FB01FC01FD01A001A101A201A3019C
:1000E800A401A501A601A7017E1020008131EC29F9
:1000F80001302000A4070030A53D813183218031E3
:1001080071082000A7007008A600033027027A3083
:100118000319260203189228A201A30164302406B9
:100128002504031D9D2882313422803182310D221D
:100138008031C830200024062504031DDC28013046
:10014800A2070030A33DA401A5010830220623041C
:10015800031DCE2801308131BF2180312000A2014A
:10016800A3018E1CC02882310D22803182314822A1
:100178008031FB01FB0ACA28823139228031823161
:10018800432280310330F6007608FB0082312D22AD
:100198008031DC288231052280310330200027029B
:1001A8007A30031926020318DC288231392280317B
:1001B800823150220800813183218031700820006B
:1001C800A0077108A13D8231502280310130F6002C
:1001D8007608FA0720307A06031D0729200021082F
:1001E800F7002008F6000730F736F60C890BF828D8
:1001F8007608A8007708A9004630A8070030A93D6E
:10020800A001A101FA0101302000A4070030A53D9A
:1002180029082506031D122928082406031D08009D
:100228002D29823115228031063029298231482230
:100238008031FB01FB0A3B298231432280310330A4
:10024800292982313E2280310430F6007608FB00ED
:100258003B297B08023A03192029013A0319252969
:10026800063A03191529033A03191A293B292000CC
:10027800A401A5010800FD017D0820008C00FC01F7
:100288007C088E0021000C128C128E120E128E1118
:100298007D0820008C007C088E00FB01A401A501CC
:1002A800A201A301A601A701A001A101FA01C8307A
:1002B800A8000030A90021008E1423008E10210010
:1002C8000E1423000E1421000E1423000E14210016
:1002D8000C1523000C1521009712171697111715E6
:1002E800971064008131FA21813100308131A221D7
:1002F800813182314D2281318131DA21080021009A
:100308009D1C8A2900320032003283291C08F20021
:10031800F3017208F4007308F5000830F435F50DA0
:10032800890B92291B08F200F3017208F404730880
:10033800F5047508F1007408F00008002000AA0010
:10034800B52921001D08033940389D0003309E045B
:10035800080021001D08033908389D00FC309E055F
:10036800080020002A08003A0319A529013A0319B0
:10037800AD29BE290800F000D12921001D08033944
:1003880040389D0003309E04080021001D080339F1
:1003980008389D00FC309E0508007008003A0319D3
:1003A800C129013A0319C929D929080020001F08C1
:1003B800FC3902389F0087309F0510309E009D0150
:1003C80091108B170B172100911420001F1508009E
:1003D80081313F21813111302000AB003A30890B47
:1003E800F329AB0BF32900006400EF2922009717CB
:1003F8000330970421001D148F309E051E119E178F
:100408000800DF30F0007008FD057D0820008C0032
:100418000800EF30F0007008FD057D0820008C0012
:100428000800EF30F0007008FC057C0820008E0002
:100438000800F730F0007008FC057C0820008E00EA
:100448000800DF30F0007008FC057C0820008E00F2
:100458000800270098149714991021001016080016
:10046800FD167D0820008C0008007D167D08200000
:100478008C000800FC157C0820008E0008007C1603
:100488007C0820008E000800FC167C0820008E00E6
:0E049800080021009D14080021009D1408009A
:020000040001F9
:08000E00ECFFFDF5FCFFFCFF17
:00000001FF
